{
  "_format": "hh-sol-artifact-1",
  "contractName": "BookLibrary",
  "sourceName": "contracts/BookLibrary.sol",
  "abi": [
    {
      "anonymous": false,
      "inputs": [
        {
          "indexed": false,
          "internalType": "string",
          "name": "title",
          "type": "string"
        },
        {
          "indexed": false,
          "internalType": "uint8",
          "name": "copies",
          "type": "uint8"
        }
      ],
      "name": "BookAdded",
      "type": "event"
    },
    {
      "anonymous": false,
      "inputs": [
        {
          "indexed": false,
          "internalType": "string",
          "name": "title",
          "type": "string"
        },
        {
          "indexed": false,
          "internalType": "address",
          "name": "user",
          "type": "address"
        }
      ],
      "name": "BookBorrowed",
      "type": "event"
    },
    {
      "anonymous": false,
      "inputs": [
        {
          "indexed": false,
          "internalType": "string",
          "name": "title",
          "type": "string"
        },
        {
          "indexed": false,
          "internalType": "address",
          "name": "user",
          "type": "address"
        }
      ],
      "name": "BookReturned",
      "type": "event"
    },
    {
      "anonymous": false,
      "inputs": [
        {
          "indexed": false,
          "internalType": "string",
          "name": "title",
          "type": "string"
        },
        {
          "indexed": false,
          "internalType": "uint8",
          "name": "copies",
          "type": "uint8"
        }
      ],
      "name": "BookUpdated",
      "type": "event"
    },
    {
      "anonymous": false,
      "inputs": [
        {
          "indexed": true,
          "internalType": "address",
          "name": "previousOwner",
          "type": "address"
        },
        {
          "indexed": true,
          "internalType": "address",
          "name": "newOwner",
          "type": "address"
        }
      ],
      "name": "OwnershipTransferred",
      "type": "event"
    },
    {
      "inputs": [
        {
          "internalType": "string",
          "name": "_title",
          "type": "string"
        },
        {
          "internalType": "uint8",
          "name": "_copies",
          "type": "uint8"
        }
      ],
      "name": "addBook",
      "outputs": [],
      "stateMutability": "nonpayable",
      "type": "function"
    },
    {
      "inputs": [
        {
          "internalType": "uint256",
          "name": "",
          "type": "uint256"
        }
      ],
      "name": "bookIds",
      "outputs": [
        {
          "internalType": "bytes32",
          "name": "",
          "type": "bytes32"
        }
      ],
      "stateMutability": "view",
      "type": "function"
    },
    {
      "inputs": [
        {
          "internalType": "bytes32",
          "name": "",
          "type": "bytes32"
        }
      ],
      "name": "books",
      "outputs": [
        {
          "internalType": "string",
          "name": "title",
          "type": "string"
        },
        {
          "internalType": "uint8",
          "name": "copies",
          "type": "uint8"
        }
      ],
      "stateMutability": "view",
      "type": "function"
    },
    {
      "inputs": [
        {
          "internalType": "bytes32",
          "name": "_bookId",
          "type": "bytes32"
        }
      ],
      "name": "borrowBook",
      "outputs": [],
      "stateMutability": "nonpayable",
      "type": "function"
    },
    {
      "inputs": [
        {
          "internalType": "address",
          "name": "",
          "type": "address"
        },
        {
          "internalType": "bytes32",
          "name": "",
          "type": "bytes32"
        }
      ],
      "name": "borrowedBooks",
      "outputs": [
        {
          "internalType": "bool",
          "name": "",
          "type": "bool"
        }
      ],
      "stateMutability": "view",
      "type": "function"
    },
    {
      "inputs": [
        {
          "internalType": "bytes32",
          "name": "_bookId",
          "type": "bytes32"
        }
      ],
      "name": "getBookData",
      "outputs": [
        {
          "components": [
            {
              "internalType": "string",
              "name": "title",
              "type": "string"
            },
            {
              "internalType": "uint8",
              "name": "copies",
              "type": "uint8"
            },
            {
              "internalType": "address[]",
              "name": "borrowers",
              "type": "address[]"
            }
          ],
          "internalType": "struct BookLibrary.BookStruct",
          "name": "",
          "type": "tuple"
        }
      ],
      "stateMutability": "view",
      "type": "function"
    },
    {
      "inputs": [],
      "name": "getBooksList",
      "outputs": [
        {
          "internalType": "bytes32[]",
          "name": "",
          "type": "bytes32[]"
        }
      ],
      "stateMutability": "view",
      "type": "function"
    },
    {
      "inputs": [
        {
          "internalType": "address",
          "name": "_bookBorrower",
          "type": "address"
        },
        {
          "internalType": "bytes32",
          "name": "_bookId",
          "type": "bytes32"
        }
      ],
      "name": "isBookBorrowed",
      "outputs": [
        {
          "internalType": "bool",
          "name": "",
          "type": "bool"
        }
      ],
      "stateMutability": "view",
      "type": "function"
    },
    {
      "inputs": [],
      "name": "owner",
      "outputs": [
        {
          "internalType": "address",
          "name": "",
          "type": "address"
        }
      ],
      "stateMutability": "view",
      "type": "function"
    },
    {
      "inputs": [],
      "name": "renounceOwnership",
      "outputs": [],
      "stateMutability": "nonpayable",
      "type": "function"
    },
    {
      "inputs": [
        {
          "internalType": "bytes32",
          "name": "_bookId",
          "type": "bytes32"
        }
      ],
      "name": "returnBook",
      "outputs": [],
      "stateMutability": "nonpayable",
      "type": "function"
    },
    {
      "inputs": [
        {
          "internalType": "address",
          "name": "newOwner",
          "type": "address"
        }
      ],
      "name": "transferOwnership",
      "outputs": [],
      "stateMutability": "nonpayable",
      "type": "function"
    }
  ],
  "bytecode": "0x60806040523480156200001157600080fd5b5062000032620000266200003860201b60201c565b6200004060201b60201c565b62000104565b600033905090565b60008060009054906101000a900473ffffffffffffffffffffffffffffffffffffffff169050816000806101000a81548173ffffffffffffffffffffffffffffffffffffffff021916908373ffffffffffffffffffffffffffffffffffffffff1602179055508173ffffffffffffffffffffffffffffffffffffffff168173ffffffffffffffffffffffffffffffffffffffff167f8be0079c531659141344cd1fd0a4f28419497f9722a3daafe3b4186f6b6457e060405160405180910390a35050565b61251380620001146000396000f3fe608060405234801561001057600080fd5b50600436106100b35760003560e01c80638da5cb5b116100715780638da5cb5b1461019f578063a63ac38e146101bd578063cc93ea64146101d9578063d25a4348146101f7578063e481294a14610213578063f2fde38b14610243576100b3565b8062cd3b62146100b85780630c0dee70146100e857806312775c1614610119578063513073b814610135578063543ab94a14610165578063715018a614610195575b600080fd5b6100d260048036038101906100cd9190611626565b61025f565b6040516100df9190611681565b60405180910390f35b61010260048036038101906100fd919061169c565b61028e565b604051610110929190611775565b60405180910390f35b610133600480360381019061012e919061169c565b610347565b005b61014f600480360381019061014a91906117db565b6105e8565b60405161015c9190611817565b60405180910390f35b61017f600480360381019061017a919061169c565b61060c565b60405161018c91906119a0565b60405180910390f35b61019d6107b2565b005b6101a76107c6565b6040516101b491906119d1565b60405180910390f35b6101d760048036038101906101d29190611b4d565b6107ef565b005b6101e1610ca0565b6040516101ee9190611c67565b60405180910390f35b610211600480360381019061020c919061169c565b610d34565b005b61022d60048036038101906102289190611626565b61123f565b60405161023a9190611681565b60405180910390f35b61025d60048036038101906102589190611c89565b6112e3565b005b60036020528160005260406000206020528060005260406000206000915091509054906101000a900460ff1681565b60026020528060005260406000206000915090508060000180546102b190611ce5565b80601f01602080910402602001604051908101604052809291908181526020018280546102dd90611ce5565b801561032a5780601f106102ff5761010080835404028352916020019161032a565b820191906000526020600020905b81548152906001019060200180831161030d57829003601f168201915b5050505050908060010160009054906101000a900460ff16905082565b61035b67918e8dff0adfc8d260c01b611366565b61036f67a0eb8b5df643291a60c01b611366565b610383673389a334319a7e8160c01b611366565b60006002600083815260200190815260200160002090506103ae67ad66d1949eb7cabd60c01b611366565b6103c26704996691530103c860c01b611366565b60003390506103db678e8ded5f1d0fa28160c01b611366565b6103ef67169fc0a48827047860c01b611366565b6104036763f4e23b1c33021e60c01b611366565b600360008273ffffffffffffffffffffffffffffffffffffffff1673ffffffffffffffffffffffffffffffffffffffff168152602001908152602001600020600084815260200190815260200160002060009054906101000a900460ff166104a0576040517f08c379a000000000000000000000000000000000000000000000000000000000815260040161049790611d88565b60405180910390fd5b6104b467ab4303ebbd73b88660c01b611366565b6104c86744cab936fec0ebf160c01b611366565b6000600360008373ffffffffffffffffffffffffffffffffffffffff1673ffffffffffffffffffffffffffffffffffffffff168152602001908152602001600020600085815260200190815260200160002060006101000a81548160ff02191690831515021790555061054567880d719c854cd9c360c01b611366565b81600101600081819054906101000a900460ff168092919061056690611dd7565b91906101000a81548160ff021916908360ff1602179055505061059367ff487ce5754d088d60c01b611366565b6105a767afe14a5a038e84c960c01b611366565b7ff1b2f3d040d6eaa2f46fc6969cded1c5e090aed7039a4e447f1f02aeda4067c582600001826040516105db929190611e99565b60405180910390a1505050565b600181815481106105f857600080fd5b906000526020600020016000915090505481565b6106146114b3565b610628679ba6be94071a207c60c01b611366565b61063c679cf8cba2f4adf3c360c01b611366565b6106506701ec9c288ddd3c5360c01b611366565b6002600083815260200190815260200160002060405180606001604052908160008201805461067e90611ce5565b80601f01602080910402602001604051908101604052809291908181526020018280546106aa90611ce5565b80156106f75780601f106106cc576101008083540402835291602001916106f7565b820191906000526020600020905b8154815290600101906020018083116106da57829003601f168201915b505050505081526020016001820160009054906101000a900460ff1660ff1660ff168152602001600282018054806020026020016040519081016040528092919081815260200182805480156107a257602002820191906000526020600020905b8160009054906101000a900473ffffffffffffffffffffffffffffffffffffffff1673ffffffffffffffffffffffffffffffffffffffff1681526020019060010190808311610758575b5050505050815250509050919050565b6107ba611369565b6107c460006113e7565b565b60008060009054906101000a900473ffffffffffffffffffffffffffffffffffffffff16905090565b61080367afb7195f843e850f60c01b611366565b61080b611369565b61081f67c697158f6eb0484460c01b611366565b610833675e0f1d8e2dcc227460c01b611366565b61084767d7b4d5547c8e1c5c60c01b611366565b61085b671efe2b8d331a3b5660c01b611366565b61086f67c874fe6fd868630860c01b611366565b60008251116108b3576040517f08c379a00000000000000000000000000000000000000000000000000000000081526004016108aa90611f15565b60405180910390fd5b6108c767d1da1ef8726eca6660c01b611366565b6108db675de54ae09b53357f60c01b611366565b6108ef67809dccecdc76133460c01b611366565b6109036759f4ac718f130f5d60c01b611366565b60008160ff1611610949576040517f08c379a000000000000000000000000000000000000000000000000000000000815260040161094090611fa7565b60405180910390fd5b61095d670f60651800181f8860c01b611366565b61097167aaf737472d2513a960c01b611366565b610985671b8331823635eece60c01b611366565b6000826040516020016109989190612003565b6040516020818303038152906040528051906020012090506109c4671e72480acd06eb1660c01b611366565b6109d867ee88475f4067febc60c01b611366565b60006002600083815260200190815260200160002060010160009054906101000a900460ff1660ff161115610adf57610a1b678f9539261efb1efa60c01b611366565b610a2f6773151cf75bee4edd60c01b611366565b816002600083815260200190815260200160002060010160008282829054906101000a900460ff16610a61919061201a565b92506101000a81548160ff021916908360ff160217905550610a8d6763bf84d640fd22ea60c01b611366565b610aa167852fac17115184c060c01b611366565b7ff75007f2dd64ee5ad7f654595f28cd816dc5df570ef45efe95bcce709a1bfc858383604051610ad2929190611775565b60405180910390a1610c9b565b610af367e6ec72e7e379f0c560c01b611366565b610b076727f03e049f37a9e160c01b611366565b610b1b676018a82a96fe45bc60c01b611366565b6060610b31670848d094f5908f9d60c01b611366565b610b4567f4541d736c45640e60c01b611366565b600060405180606001604052808681526020018560ff168152602001838152509050610b7b67efb91d48919c50d860c01b611366565b80600260008581526020019081526020016000206000820151816000019081610ba491906121e6565b5060208201518160010160006101000a81548160ff021916908360ff1602179055506040820151816002019080519060200190610be29291906114d7565b50905050610bfa67aa4e630121a0269c60c01b611366565b610c0e67c2ddd60218155eb260c01b611366565b6001839080600181540180825580915050600190039060005260206000200160009091909190915055610c4b6734db580ff03d340760c01b611366565b610c5f675beb4b77fe79fb6c60c01b611366565b7f03ae856e3514fa7a8f4bbe40129bcb18d202785cba3269f1aeba6dd371db23a28585604051610c90929190611775565b60405180910390a150505b505050565b6060610cb667e01a9469012f717760c01b611366565b610cca678106f993fb45f47760c01b611366565b610cde67c5ecb02b8e4ea0c660c01b611366565b6001805480602002602001604051908101604052809291908181526020018280548015610d2a57602002820191906000526020600020905b815481526020019060010190808311610d16575b5050505050905090565b610d4867658316a4f160716160c01b611366565b610d5c6743388cd56360f2f560c01b611366565b610d7067ddcea947f15c044460c01b611366565b6000600260008381526020019081526020016000209050610d9b671e3d431817c531d560c01b611366565b610daf67a8032a1870bca6d460c01b611366565b6000339050610dc867ccf705ce8cf264e960c01b611366565b610ddc677c1f68a162e0f6c660c01b611366565b610df067d09ff32fe093d23360c01b611366565b60008260010160009054906101000a900460ff1660ff1611610e47576040517f08c379a0000000000000000000000000000000000000000000000000000000008152600401610e3e9061232a565b60405180910390fd5b610e5b674e558dd166ec578060c01b611366565b610e6f670cb6ec923fa30abc60c01b611366565b610e8367e935272a573a347160c01b611366565b610e9767ca544d073ac820f360c01b611366565b600360008273ffffffffffffffffffffffffffffffffffffffff1673ffffffffffffffffffffffffffffffffffffffff168152602001908152602001600020600084815260200190815260200160002060009054906101000a900460ff1615610f35576040517f08c379a0000000000000000000000000000000000000000000000000000000008152600401610f2c90612396565b60405180910390fd5b610f4967e517e37f71ae647760c01b611366565b610f5d677686384123ebfcfa60c01b611366565b6001600360008373ffffffffffffffffffffffffffffffffffffffff1673ffffffffffffffffffffffffffffffffffffffff168152602001908152602001600020600085815260200190815260200160002060006101000a81548160ff021916908315150217905550610fda67944a22fef57e85f260c01b611366565b610fee677ee1179adabed52060c01b611366565b6004600084815260200190815260200160002060008273ffffffffffffffffffffffffffffffffffffffff1673ffffffffffffffffffffffffffffffffffffffff16815260200190815260200160002060009054906101000a900460ff1661117357611064670df726a2ee02bb6d60c01b611366565b6110786785dd63a3b66b457060c01b611366565b60016004600085815260200190815260200160002060008373ffffffffffffffffffffffffffffffffffffffff1673ffffffffffffffffffffffffffffffffffffffff16815260200190815260200160002060006101000a81548160ff0219169083151502179055506110f567ed7718d631e2500360c01b611366565b61110967f4bba584e017123960c01b611366565b81600201819080600181540180825580915050600190039060005260206000200160009091909190916101000a81548173ffffffffffffffffffffffffffffffffffffffff021916908373ffffffffffffffffffffffffffffffffffffffff160217905550611188565b61118767fb1c6c9c993f042e60c01b611366565b5b61119c67b0cc61bb07363c9060c01b611366565b81600101600081819054906101000a900460ff16809291906111bd906123b6565b91906101000a81548160ff021916908360ff160217905550506111ea671cfa8e6049a0dd5c60c01b611366565b6111fe674ccf314a817353d960c01b611366565b7f469d7b1cb358edcbc2c8e949b8a6598672e51661418984c55d85a904a4b220538260000182604051611232929190611e99565b60405180910390a1505050565b60006112556754967d63db06dfc760c01b611366565b61126967db932a1f6a30a6ba60c01b611366565b61127d6715a9ba1f26c70c0760c01b611366565b600360008473ffffffffffffffffffffffffffffffffffffffff1673ffffffffffffffffffffffffffffffffffffffff168152602001908152602001600020600083815260200190815260200160002060009054906101000a900460ff16905092915050565b6112eb611369565b600073ffffffffffffffffffffffffffffffffffffffff168173ffffffffffffffffffffffffffffffffffffffff160361135a576040517f08c379a000000000000000000000000000000000000000000000000000000000815260040161135190612451565b60405180910390fd5b611363816113e7565b50565b50565b6113716114ab565b73ffffffffffffffffffffffffffffffffffffffff1661138f6107c6565b73ffffffffffffffffffffffffffffffffffffffff16146113e5576040517f08c379a00000000000000000000000000000000000000000000000000000000081526004016113dc906124bd565b60405180910390fd5b565b60008060009054906101000a900473ffffffffffffffffffffffffffffffffffffffff169050816000806101000a81548173ffffffffffffffffffffffffffffffffffffffff021916908373ffffffffffffffffffffffffffffffffffffffff1602179055508173ffffffffffffffffffffffffffffffffffffffff168173ffffffffffffffffffffffffffffffffffffffff167f8be0079c531659141344cd1fd0a4f28419497f9722a3daafe3b4186f6b6457e060405160405180910390a35050565b600033905090565b604051806060016040528060608152602001600060ff168152602001606081525090565b828054828255906000526020600020908101928215611550579160200282015b8281111561154f5782518260006101000a81548173ffffffffffffffffffffffffffffffffffffffff021916908373ffffffffffffffffffffffffffffffffffffffff160217905550916020019190600101906114f7565b5b50905061155d9190611561565b5090565b5b8082111561157a576000816000905550600101611562565b5090565b6000604051905090565b600080fd5b600080fd5b600073ffffffffffffffffffffffffffffffffffffffff82169050919050565b60006115bd82611592565b9050919050565b6115cd816115b2565b81146115d857600080fd5b50565b6000813590506115ea816115c4565b92915050565b6000819050919050565b611603816115f0565b811461160e57600080fd5b50565b600081359050611620816115fa565b92915050565b6000806040838503121561163d5761163c611588565b5b600061164b858286016115db565b925050602061165c85828601611611565b9150509250929050565b60008115159050919050565b61167b81611666565b82525050565b60006020820190506116966000830184611672565b92915050565b6000602082840312156116b2576116b1611588565b5b60006116c084828501611611565b91505092915050565b600081519050919050565b600082825260208201905092915050565b60005b838110156117035780820151818401526020810190506116e8565b60008484015250505050565b6000601f19601f8301169050919050565b600061172b826116c9565b61173581856116d4565b93506117458185602086016116e5565b61174e8161170f565b840191505092915050565b600060ff82169050919050565b61176f81611759565b82525050565b6000604082019050818103600083015261178f8185611720565b905061179e6020830184611766565b9392505050565b6000819050919050565b6117b8816117a5565b81146117c357600080fd5b50565b6000813590506117d5816117af565b92915050565b6000602082840312156117f1576117f0611588565b5b60006117ff848285016117c6565b91505092915050565b611811816115f0565b82525050565b600060208201905061182c6000830184611808565b92915050565b600082825260208201905092915050565b600061184e826116c9565b6118588185611832565b93506118688185602086016116e5565b6118718161170f565b840191505092915050565b61188581611759565b82525050565b600081519050919050565b600082825260208201905092915050565b6000819050602082019050919050565b6118c0816115b2565b82525050565b60006118d283836118b7565b60208301905092915050565b6000602082019050919050565b60006118f68261188b565b6119008185611896565b935061190b836118a7565b8060005b8381101561193c57815161192388826118c6565b975061192e836118de565b92505060018101905061190f565b5085935050505092915050565b600060608301600083015184820360008601526119668282611843565b915050602083015161197b602086018261187c565b506040830151848203604086015261199382826118eb565b9150508091505092915050565b600060208201905081810360008301526119ba8184611949565b905092915050565b6119cb816115b2565b82525050565b60006020820190506119e660008301846119c2565b92915050565b600080fd5b600080fd5b7f4e487b7100000000000000000000000000000000000000000000000000000000600052604160045260246000fd5b611a2e8261170f565b810181811067ffffffffffffffff82111715611a4d57611a4c6119f6565b5b80604052505050565b6000611a6061157e565b9050611a6c8282611a25565b919050565b600067ffffffffffffffff821115611a8c57611a8b6119f6565b5b611a958261170f565b9050602081019050919050565b82818337600083830152505050565b6000611ac4611abf84611a71565b611a56565b905082815260208101848484011115611ae057611adf6119f1565b5b611aeb848285611aa2565b509392505050565b600082601f830112611b0857611b076119ec565b5b8135611b18848260208601611ab1565b91505092915050565b611b2a81611759565b8114611b3557600080fd5b50565b600081359050611b4781611b21565b92915050565b60008060408385031215611b6457611b63611588565b5b600083013567ffffffffffffffff811115611b8257611b8161158d565b5b611b8e85828601611af3565b9250506020611b9f85828601611b38565b9150509250929050565b600081519050919050565b600082825260208201905092915050565b6000819050602082019050919050565b611bde816115f0565b82525050565b6000611bf08383611bd5565b60208301905092915050565b6000602082019050919050565b6000611c1482611ba9565b611c1e8185611bb4565b9350611c2983611bc5565b8060005b83811015611c5a578151611c418882611be4565b9750611c4c83611bfc565b925050600181019050611c2d565b5085935050505092915050565b60006020820190508181036000830152611c818184611c09565b905092915050565b600060208284031215611c9f57611c9e611588565b5b6000611cad848285016115db565b91505092915050565b7f4e487b7100000000000000000000000000000000000000000000000000000000600052602260045260246000fd5b60006002820490506001821680611cfd57607f821691505b602082108103611d1057611d0f611cb6565b5b50919050565b7f596f7520646f6e2774206861766520746f2072657475726e207468697320626f60008201527f6f6b210000000000000000000000000000000000000000000000000000000000602082015250565b6000611d726023836116d4565b9150611d7d82611d16565b604082019050919050565b60006020820190508181036000830152611da181611d65565b9050919050565b7f4e487b7100000000000000000000000000000000000000000000000000000000600052601160045260246000fd5b6000611de282611759565b915060ff8203611df557611df4611da8565b5b600182019050919050565b60008190508160005260206000209050919050565b60008154611e2281611ce5565b611e2c81866116d4565b94506001821660008114611e475760018114611e5d57611e90565b60ff198316865281151560200286019350611e90565b611e6685611e00565b60005b83811015611e8857815481890152600182019150602081019050611e69565b808801955050505b50505092915050565b60006040820190508181036000830152611eb38185611e15565b9050611ec260208301846119c2565b9392505050565b7f5469746c652063616e6e6f7420626520616e20656d70747920737472696e6721600082015250565b6000611eff6020836116d4565b9150611f0a82611ec9565b602082019050919050565b60006020820190508181036000830152611f2e81611ef2565b9050919050565b7f436f706965732073686f756c642062652067726561746572207468616e207a6560008201527f726f210000000000000000000000000000000000000000000000000000000000602082015250565b6000611f916023836116d4565b9150611f9c82611f35565b604082019050919050565b60006020820190508181036000830152611fc081611f84565b9050919050565b600081905092915050565b6000611fdd826116c9565b611fe78185611fc7565b9350611ff78185602086016116e5565b80840191505092915050565b600061200f8284611fd2565b915081905092915050565b600061202582611759565b915061203083611759565b9250828201905060ff81111561204957612048611da8565b5b92915050565b60006020601f8301049050919050565b600082821b905092915050565b60006008830261209c7fffffffffffffffffffffffffffffffffffffffffffffffffffffffffffffffff8261205f565b6120a6868361205f565b95508019841693508086168417925050509392505050565b6000819050919050565b60006120e36120de6120d9846117a5565b6120be565b6117a5565b9050919050565b6000819050919050565b6120fd836120c8565b612111612109826120ea565b84845461206c565b825550505050565b600090565b612126612119565b6121318184846120f4565b505050565b5b818110156121555761214a60008261211e565b600181019050612137565b5050565b601f82111561219a5761216b81611e00565b6121748461204f565b81016020851015612183578190505b61219761218f8561204f565b830182612136565b50505b505050565b600082821c905092915050565b60006121bd6000198460080261219f565b1980831691505092915050565b60006121d683836121ac565b9150826002028217905092915050565b6121ef826116c9565b67ffffffffffffffff811115612208576122076119f6565b5b6122128254611ce5565b61221d828285612159565b600060209050601f831160018114612250576000841561223e578287015190505b61224885826121ca565b8655506122b0565b601f19841661225e86611e00565b60005b8281101561228657848901518255600182019150602085019450602081019050612261565b868310156122a3578489015161229f601f8916826121ac565b8355505b6001600288020188555050505b505050505050565b7f5468697320626f6f6b20646f6573206e6f74206861766520617661696c61626c60008201527f6520636f706965732063757272656e746c792100000000000000000000000000602082015250565b60006123146033836116d4565b915061231f826122b8565b604082019050919050565b6000602082019050818103600083015261234381612307565b9050919050565b7f596f7520616c726561647920626f72726f776564207468697320626f6f6b2100600082015250565b6000612380601f836116d4565b915061238b8261234a565b602082019050919050565b600060208201905081810360008301526123af81612373565b9050919050565b60006123c182611759565b9150600082036123d4576123d3611da8565b5b600182039050919050565b7f4f776e61626c653a206e6577206f776e657220697320746865207a65726f206160008201527f6464726573730000000000000000000000000000000000000000000000000000602082015250565b600061243b6026836116d4565b9150612446826123df565b604082019050919050565b6000602082019050818103600083015261246a8161242e565b9050919050565b7f4f776e61626c653a2063616c6c6572206973206e6f7420746865206f776e6572600082015250565b60006124a76020836116d4565b91506124b282612471565b602082019050919050565b600060208201905081810360008301526124d68161249a565b905091905056fea2646970667358221220ed2bbb3ad91cffc48be2e4552fd95a0eaed9d90d9bd737042a009b7ae3f4aa1d64736f6c63430008130033",
  "linkReferences": {},
  "deployedLinkReferences": {}
}